:100000005EC078C077C076C075C074C073C072C05F
:1000100071C070C06FC026C56DC06CC06BC06AC0B7
:1000200069C068C067C066C065C064C063C062C0A4
:1000300061C060C05FC05EC05DC05CC00763423627
:10004000B79BD8A71A39685618AEBAAB558C1D3C69
:10005000B7CC5763BD6DEDFD753EF6177231BF002D
:100060000000803F08000000BE922449123EABAA67
:10007000AA2ABECDCCCC4C3E00000080BEABAAAAC2
:10008000AA3E00000000BF000000803F000000000A
:1000900000084178D3BB4387D1133D190E3CC3BD43
:1000A0004282AD2B3E68EC8276BED98FE1A93E4CF0
:1000B00080EFFFBE01C4FF7F3F000000000011245D
:1000C0001FBECFEFD2E0DEBFCDBF11E0A0E0B1E0B8
:1000D000E6EFF6E102C005900D92AA30B107D9F71C
:1000E00021E0AAE0B1E001C01D92A734B207E1F718
:1000F00002D5FFCA85CFDF988093B0008091B10010
:1001000087FFFCCF6093B0008091B10087FFFCCFE8
:10011000DF9A8091B0000895DF988093B0008091BD
:10012000B10087FFFCCF1092B0008091B10087FF33
:10013000FCCF8091B00090E01092B0002091B1000F
:1001400027FFFCCF2091B000DF9A922B089588E81A
:10015000E3DF90932601809325018AE8DDDF909309
:100160002C0180932B018CE8D7DF90934001809382
:100170003F018EE8D1DF909334018093330180E911
:10018000CBDF90932E0180932D0182E9C5DF909300
:1001900036018093350184E9BFDF9093300180936D
:1001A0002F0186E9B9DF909332018093310188E90C
:1001B000B3DF90934201809341018AE9ADDF9093D0
:1001C0002401809323018CE9A7DF90933801809369
:1001D00037018EE9A1DF90933E0180933D010895A0
:1001E0006FE284E788DF68E085E785CF8093B00021
:1001F0008091B10087FFFCCF8091B0000895DF9817
:1002000080688093B0008091B10087FFFCCF10928E
:10021000B0008091B10087FFFCCF6091B000862FC5
:1002200090E0A0E0B0E0BA2FA92F982F8827109275
:10023000B0002091B10027FFFCCF2091B000822BAD
:10024000BA2FA92F982F88271092B0002091B100C3
:1002500027FFFCCF2091B000822BDF9ABC01CD019B
:1002600024E095958795779567952A95D1F7089518
:100270004F925F926F927F928F929F92AF92BF92B6
:10028000CF92DF92EF92FF928AEFB9DF8090250143
:1002900090902601A12CB12C6B017C0124E0F594F7
:1002A000E794D794C7942A95D1F7C818D908EA08D3
:1002B000FB08DC01CB0133E0B595A79597958795B1
:1002C0003A95D1F7880C991CAA1CBB1CBC01CD0126
:1002D000681979098A099B0920912B0130912C0119
:1002E000032E000C440B550BAFD529013A015BE0FE
:1002F00075946794579447945A95D1F7C701B601FE
:10030000A7019601A1D549015A01C501B401ECE04C
:100310009595879577956795EA95D1F720913F0157
:1003200030914001032E000C440B550B8DD5490133
:100330005A01D501C401FEE0B595A795979587951B
:10034000FA95D1F7BC01CD01640D751D861D971D71
:10035000609343017093440180934501909346015B
:1003600025E030E040E050E06FD549015A01D50169
:10037000C40180589F4FAF4FBF4F692F7A2F8B2FEB
:10038000992787FD9A95FF90EF90DF90CF90BF90CF
:10039000AF909F908F907F906F905F904F90089557
:1003A0002F923F924F925F926F927F928F929F9285
:1003B000AF92BF92CF92DF92EF92FF920F931F9373
:1003C000CF93DF93CDB7DEB762970FB6F894DEBF59
:1003D0000FBECDBF4DDF87EF12DF2B013C018090B8
:1003E000430190904401A0904501B0904601B5941E
:1003F000A794979487940AEF901AA108B108A501D1
:10040000940162E055954795379527956A95D1F700
:10041000CA01B90119D569017A0100914101109110
:1004200042011A8B098B0091310110913201209009
:100430002F01309030016091350170913601072E07
:10044000000C880B990BA7019601EDE05595479597
:1004500037952795EA95D1F7F7D429833A834B83CB
:100460005C8329813A814B815C81F3E05595479506
:1004700037952795FA95D1F729833A834B835C8387
:1004800060912D0170912E01072E000C880B990BA5
:10049000A5019401D9D429873A874B875C87898540
:1004A0009A85AB85BC85B595A79597958795298144
:1004B0003A814B815C81820F931FA41FB51F32E1EB
:1004C000B595A795979587953A95D1F7BC01CD013C
:1004D00070588F4F9F4F209133013091340140E08D
:1004E00050E0B2D4C901DA019C01AD016FE055952D
:1004F0004795379527956A95D1F729873A874B878E
:100500005C87232B242B252B09F4E9C0C701B601F6
:10051000ABE09595879577956795AA95D1F7E9888A
:10052000FA889701FF0C440B550B8ED429833A832C
:100530004B835C839801110F440B550BC501B4012B
:1005400083D449015A01D501C401880F991FAA1FFC
:10055000BB1FC980DA80EB80FC80C80ED91EEA1E62
:10056000FB1E02E0F594E794D794C7940A95D1F75F
:1005700088279927DC0184199509A609B709A101E3
:10058000330C660B770BBA0155274427C40ED51ED2
:10059000E61EF71E3CE0F594E794D794C7943A958D
:1005A000D1F7BC01CD016C197D098E099F0925E3A6
:1005B0003CE040E050E04AD449015A01C501B40191
:1005C000805B9C4397FD0CC0660F771F881F991FA7
:1005D00029853A854B855C85F9D329013A010BC001
:1005E00029853A854B855C85F1D329013A01440C74
:1005F000551C661C771CA301920183E05695479514
:10060000379527958A95D1F780913D0190913E01CC
:100610007C01990F000B110BE982FA820B831C837A
:10062000CA01B90113D449015A01A50194019DE001
:1006300056954795379527959A95D1F769817A818F
:100640008B819C8101D449015A01950184014CE0C0
:1006500035952795179507954A95D1F709831A83FC
:100660002B833C83C301B20152E096958795779521
:1006700067955A95D1F72091370130913801032EB3
:10068000000C440B550BE0D349015A016DE0B594C1
:10069000A794979487946A95D1F7E980FA800B81A3
:1006A0001C818E0C9F1CA01EB11E609123017091B5
:1006B0002401CB01770FAA0BBB0B880D991DAA1D36
:1006C000BB1D74E0B595A795979587957A95D1F759
:1006D000BC01CD01640D751D861D971D03C060E032
:1006E00070E0CB0162960FB6F894DEBF0FBECDBFAF
:1006F000DF91CF911F910F91FF90EF90DF90CF90FE
:10070000BF90AF909F908F907F906F905F904F9031
:100710003F902F9008958F929F92AF92BF92CF9269
:10072000DF92EF92FF92A4DD4B015C0139DE20D510
:100730006B017C01C501B4011DD520E030E048EC1F
:1007400052E47DD423E333E948E853E414D426E6A5
:1007500036E84FE853E49AD59B01AC01C701B601D6
:100760006ED420E030E048EC52E490D5D0D4FF9035
:10077000EF90DF90CF90BF90AF909F908F900895B3
:100780000FDEF6D42091390130913A0140913B01BE
:1007900050913C0154D421E03EED42E45EE3E1D5CA
:1007A0009B01AC0160E070E080E89FE3E3D320E0D0
:1007B0003CE04DE257E46AD5AAD468517C4F8F4F94
:1007C0009F4F08958AB380658ABB80E58093B2000D
:1007D000D79ADF9A08959091860095FFFCCF809379
:1007E00080000895E4E8F0E0808186608083E5E899
:1007F000F0E08081886180838AE1809381000895A0
:100800008091860087FFFCCF809180000895EF9251
:10081000FF920F931F93CF93DF9300D000D01F92CE
:10082000CDB7DEB78E010F5F1F4F25E0F8011192A3
:100830002A95E9F74AE050E0B801F8D67E01F6E0E3
:10084000EF0EF11CF80181918F018111C4DF0E15AB
:100850001F05C1F70F900F900F900F900F90DF9131
:10086000CF911F910F91FF90EF900895CF92DF925B
:10087000EF92FF92CF93DF9300D000D0CDB7DEB7D9
:100880006B017C0120E137E240E050E0C1D2C901B8
:1008900029833A834B835C83BADF29813A81C9017A
:1008A00060E177E26FD2092E000CAA0BBB0BA70107
:1008B0009601281B390B4A0B5B0BDA01C90149F47D
:1008C00080E389DF80E387DF80E385DF80E383DF08
:1008D00001C09DDF8AE00F900F900F900F90DF9185
:1008E000CF91FF90EF90DF90CF9075CF2E9A2E99F9
:1008F000FECF86B127B190E0922B0895CF92DF9280
:10090000EF92FF920F931F93CF93DF93CDB7DEB794
:100910002A970FB6F894DEBF0FBECDBF9CE0E92E3C
:10092000F12C00E010E0C701BED6081719070CF43F
:100930008C0142E0E40EF11CE11482E0F80699F724
:100940008CE090E0B0D69801281B390B8AE0E0E0FB
:10095000F1E0DE01119601900D928A95E1F7FE011A
:1009600031966E0199E0C91AD1088F018AE0E82E0C
:10097000F12CC901B70117D2D801009729F41996B3
:10098000FC92EE92189704C019969C938E93189738
:10099000C901B70108D29B01025011090C151D05B0
:1009A00041F79E01255F3F4F80E090E040815181FB
:1009B0008417950784F4D89AAFEFB3E61197F1F74F
:1009C00000C00000D898AFEFB3E61197F1F700C070
:1009D00000000196EBCFBFEF47E582E0B150404009
:1009E0008040E1F700C000003296E217F307E1F61D
:1009F0002A960FB6F894DEBF0FBECDBFDF91CF9120
:100A00001F910F91FF90EF90DF90CF9008950F937B
:100A10001F93EFE0F1E00481158126813781008387
:100A200011832283338300851185228533850483D6
:100A300015832683378304851585268537850087AA
:100A40001187228733870089118922893389048796
:100A5000158726873787608B718B828B938B1F91CD
:100A60000F9108951F920F920FB60F9211242F939A
:100A70003F934F935F936F937F938F939F93F894DC
:100A800020910B0130910C012F5F3F4F30930C01EF
:100A900020930B0140910E01411103C08AE090E0C8
:100AA00002C085E090E010920D0150910A015111B1
:100AB00014C06AE070E066D18217930774F4109254
:100AC0000C0110920B01442321F010920E01D898D2
:100AD00004C081E080930E01D89A78949F918F9101
:100AE0007F916F915F914F913F912F910F900FBE2A
:100AF0000F901F90189583B7826083BF89B781607C
:100B000089BFD09AD89A2FEF8FE891E0215080408A
:100B10009040E1F700C00000D8982F9A8DE089B985
:100B2000809170008064809370005CDE4BDE60E03A
:100B300080EDE1DA883511F0D89AFCCF8FEF91E3A0
:100B40000197F1F700C000004BDB8FEF91E30197B5
:100B5000F1F700C00000FBDAD1DE9FEF2FEC87E059
:100B6000915020408040E1F700C00000789480E080
:100B700090E099D57C0114DCFBD26093390170932D
:100B80003A0180933B0190933C01FADD4B015C01FB
:100B9000C4E1D0E0DD24D3948091860087FF72C049
:100BA00080918000863609F058C0A0DE8C012FDECF
:100BB0008AE011DEB80180E090E07AD58FEF91E312
:100BC0000197F1F700C000001BDE082F880F110B02
:100BD000B80182E090E06CD5C80119DE8AE0FBDD47
:100BE0008FEF91E30197F1F700C0000009DE082FB5
:100BF000880F110BB80184E090E05AD5C80107DED8
:100C00008AE0E9DD8FEF91E30197F1F700C0000082
:100C1000F7DD082F880F110BB80186E090E048D56A
:100C2000C801F5DD8AE0D7DD8FEF91E30197F1F799
:100C300000C00000E5DD082F880F110BB80188E027
:100C400090E036D5C801E3DD8AE0C5DD8FEF91E3A2
:100C50000197F1F700C0000015C0843699F40CE04C
:100C600010E0C80120D5D3DD8AE0B5DD8FE792E042
:100C70000197F1F700C000000E5F1F4F011592E0D1
:100C8000190779F77DDD76D22B013C01C501B4014E
:100C90006FD220E030E0A901F9D29B01AC01C30181
:100CA000B20169D139D24B015C0180910A018823DC
:100CB00029F080910A0181113DC050C0C501B401E5
:100CC000A6DE80910F0190911001A0911101B091C9
:100CD0001201AC01BD014B5F5F4F6F4F7F4F009121
:100CE0001F01109120012091210130912201401714
:100CF000510762077307E8F6892B8A2B8B2BC9F201
:100D0000D898F894D0920A010CE010E0F8013C97D2
:100D1000F595E795EE0FFF1FEE0FFF1FE15FFE4F0A
:100D200060817181C801C4D40E5F1F4F0C171D076D
:100D30006CF3BFCFC11522E0D2072CF4B401CE0171
:100D4000B7D422960BC085B7877E806185BF85B7F3
:100D5000806285BF889585B78F7D85BFC501B40149
:100D600085DD80910A01811106C0C0DD8E159F05C9
:100D700014F0D0920D018FE79FE50197F1F700C0C5
:100D800000000ACF0024552704C0080E591F880F01
:100D9000991F009729F076956795B8F37105B9F713
:100DA000802D952F089597FB072E16F4009406D0FA
:100DB00077FD08D09DD007FC05D03EF49095819535
:100DC0009F4F0895709561957F4F0895A1E21A2E67
:100DD000AA1BBB1BFD010DC0AA1FBB1FEE1FFF1FDF
:100DE000A217B307E407F50720F0A21BB30BE40B2F
:100DF000F50B661F771F881F991F1A9469F7609576
:100E00007095809590959B01AC01BD01CF0108952F
:100E1000052E97FB16F400940FD057FD05D0D6DFB2
:100E200007FC02D046F408C05095409530952195B6
:100E30003F4F4F4F5F4F0895909580957095619506
:100E40007F4F8F4F9F4F089568940013E894A0E060
:100E5000B0E0ECE2F7E01DC0EFEFE7F959016A01FD
:100E60005E23550FEE08FE2C87019B01AC019E23EB
:100E7000990F660B762FCB014FD0CDB7DEB7EAE0E6
:100E800024C02F923F924F925F926F927F928F92E7
:100E90009F92AF92BF92CF92DF92EF92FF920F9309
:100EA0001F93CF93DF93CDB7DEB7CA1BDB0B0FB613
:100EB000F894DEBF0FBECDBF09942A8839884888D0
:100EC0005F846E847D848C849B84AA84B984C88466
:100ED000DF80EE80FD800C811B81AA81B981CE0F5D
:100EE000D11D0FB6F894DEBF0FBECDBFED01089542
:100EF000AA1BBB1B51E107C0AA1FBB1FA617B70740
:100F000010F0A61BB70B881F991F5A95A9F780955B
:100F10009095BC01CD010895DF93CF939F92A0E4FB
:100F20009A2E0024D001E001F00116950795F79460
:100F3000E794D794C794B794A79448F41068A20F85
:100F4000B31FC41FD51FE61FF71F081E191E220F4F
:100F5000331F441F551F661F771F881F991F9A94C0
:100F600021F79D01AE01BF01C00111249F90CF91D7
:100F7000DF9108955058BB27AA270ED04DC13ED10E
:100F800030F043D120F031F49F3F11F41EF433C10F
:100F90000EF4E095E7FB29C1E92F4FD180F3BA1792
:100FA000620773078407950718F071F49EF567C10F
:100FB0000EF4E0950B2EBA2FA02D0B01B901900174
:100FC0000C01CA01A0011124FF27591B99F0593FB8
:100FD00050F4503E68F11A16F040A22F232F342F00
:100FE0004427585FF3CF469537952795A795F0404E
:100FF0005395C9F77EF41F16BA0B620B730B840B63
:10100000BAF09150A1F0FF0FBB1F661F771F881F1A
:10101000C2F70EC0BA0F621F731F841F48F4879572
:1010200077956795B795F7959E3F08F0B3CF939561
:10103000880F08F09927EE0F9795879508950CD0A3
:10104000EBC0E3D040F0DAD030F021F45F3F19F08C
:10105000CCC0511115C1CFC0F0D098F39923C9F37A
:101060005523B1F3951B550BBB27AA2762177307AE
:10107000840738F09F5F5F4F220F331F441FAA1F62
:10108000A9F333D00E2E3AF0E0E830D09150504022
:10109000E695001CCAF729D0FE2F27D0660F771FD0
:1010A000881FBB1F261737074807AB07B0E809F0B2
:1010B000BB0B802DBF01FF2793585F4F2AF09E3F47
:1010C000510568F092C0DCC05F3FECF3983EDCF362
:1010D000869577956795B795F7959F5FC9F7880FC0
:1010E000911D9695879597F90895E1E0660F771F12
:1010F000881FBB1F621773078407BA0720F0621BA3
:10110000730B840BBA0BEE1F88F7E095089504D09B
:101110006894B111B5C0089598D088F09F5790F0A9
:10112000B92F9927B751A0F0D1F0660F771F881F0C
:10113000991F1AF0BA95C9F712C0B13081F09FD04B
:10114000B1E008959CC0672F782F8827B85F39F0E9
:10115000B93FCCF3869577956795B395D9F73EF46B
:1011600090958095709561957F4F8F4F9F4F089513
:10117000E89409C097FB3EF4909580957095619531
:101180007F4F8F4F9F4F9923A9F0F92F96E9BB27E7
:101190009395F695879577956795B795F111F8CF63
:1011A000FAF4BB0F11F460FF1BC06F5F7F4F8F4FCE
:1011B0009F4F16C0882311F096E911C0772321F0C4
:1011C0009EE8872F762F05C0662371F096E8862F5C
:1011D00070E060E02AF09A95660F771F881FDAF7B3
:1011E000880F9695879597F9089597F99F6780E8F6
:1011F00070E060E008959FEF80EC089500240A9469
:101200001616170618060906089500240A941216E1
:101210001306140605060895092E0394000C11F414
:10122000882352F0BB0F40F4BF2B11F460FF04C0C1
:101230006F5F7F4F8F4F9F4F089557FD9058440F1A
:10124000551F59F05F3F71F04795880F97FB991F25
:1012500061F09F3F79F087950895121613061406E2
:10126000551FF2CF4695F1DF08C01616170618066F
:10127000991FF1CF86957105610508940895E8944A
:10128000BB2766277727CB0197F908950AD0C4CFEB
:10129000B5DF28F0BADF18F0952309F0A6CFABCF61
:1012A000EFCFCBDFA8F39923D9F35523C9F3950FDB
:1012B00050E0551FAA27EE27FF27BB2700240894DC
:1012C000679520F4E20FF31FB41F0A1E220F331F8D
:1012D000441FAA1F6695A9F7779530F4F30FB41F42
:1012E0000A1E121E08F46395330F441FAA1F221F03
:1012F000769599F7879520F4B40F0A1E121E631F86
:10130000440FAA1F221F331F8695A9F7862F712D20
:10131000602D11249F5750408AF0E1F088234AF055
:10132000EE0FFF1FBB1F661F771F881F9150504095
:10133000A9F79E3F510570F058CFA2CF5F3FECF365
:10134000983EDCF3869577956795B795F795E79581
:101350009F5FC1F7FE2B880F911D9695879597F992
:101360000895FA01EE0FFF1F30962105310599F11E
:101370006115710561F48038BFE39B0749F16894FA
:101380009038810561F08038BFEF9B0741F09923C9
:1013900042F5FF3FE1053105210511F1E89408947C
:1013A000E795D901AA2329F4AB2FBE2FF85FD0F31C
:1013B00010C0FF5F70F4A695E0F7F73950F019F010
:1013C000FF3A38F49F779F930CD00F9007FC90580A
:1013D00008953EF010CF60E070E080E89FE308954C
:1013E0004FE79F775F934F933F932F939ED02F911B
:1013F0003F914F915F914ADF05C019F40EF0F5CE91
:101400003ECFF9CE22DFC8F39638C0F707F80F9227
:10141000E8942BE33AEA48EB5FE745DF0F920F923F
:101420000F924DB75EB70F92C0D0ECE3F0E016D04C
:101430004F915F91EF91FF91E595EE1FFF1F49F0EE
:10144000FE57E0684427EE0F441FFA95E1F74195F7
:10145000550B32D00F9007FE26C00895DF93CF932F
:101460001F930F93FF92EF92DF927B018C016894A0
:1014700005C0DA2EEF0115DFFE01E894A591259154
:10148000359145915591AEF3EF0186DDFE0197014F
:10149000A801DA9479F7DF90EF90FF900F911F91F8
:1014A000CF91DF9108959B01AC0160E070E080E88E
:1014B0009FE3C5CD9ACEACC0C8DEE8F39923D9F33B
:1014C000940F511DBBF39150504094F059F0882374
:1014D00032F0660F771F881F91505040C1F79E3F32
:1014E000510544F7880F911D9695879597F90895B2
:1014F0005F3FACF0983E9CF0BB278695779567954B
:10150000B79508F4B1609395C1F7BB0F58F711F484
:1015100060FFE8CF6F5F7F4F8F4F9F4FE3CFB0CE1D
:101520000EF076C068CE689460CE8FDEC8F3992343
:10153000D1F3C6F3DF93CF931F930F93FF92C92F7D
:10154000DD2788232AF02197660F771F881FDAF797
:1015500020E030E040E85FEB9FE3883920F0803EF8
:1015600030F021968F7707DDE4E6F0E003C003DD7D
:10157000E1E9F0E073DF8B01BE01EC01FB2E6F5758
:1015800071097595771F880B990BF4DD28E132E717
:1015900041E35FE386DEAF2D9801AE01FF900F912E
:1015A0001F91CF91DF91F8DC37CEFA01DC01AA0F51
:1015B000BB1F9B01AC01BF5728F4222733274427C8
:1015C00050781FC0B75188F4AB2F0024469537954B
:1015D0002795011CA395D2F3002069F0220F331F39
:1015E000441FB395DAF30DD0C5CC61307105A0E886
:1015F0008A07B94630F49B01AC0166277727882714
:101600009078309621F0208331834283538308956C
:101610009F3F31F0915020F4879577956795B79566
:10162000880F911D9695879597F908954532510534
:1016300018F4423008F004C0FB011082CB01089579
:10164000BB274A3031F4992322F4BDE2909581956D
:101650009F4F01C0BB27FB015527AA27880F991F61
:10166000AA1FA41710F0A41B83955051B9F7A05DD1
:10167000AA3308F0A95DA193009779F7B111B1934E
:101680001192CB0100C0DC01FC01672F719177231F
:10169000E1F7329704C07C916D9370836291AE172D
:1016A000BF07C8F30895A8E1B0E042E050E005C0EC
:1016B00012D0272F11C0DC01CB01FC01E199FECF34
:1016C00006C0FFBBEEBBE09A31960DB20D924150C1
:1016D0005040B8F70895262FE199FECF1CBA9FBB62
:1016E0008EBB2DBB0FB6F894E29AE19A0FBE01961D
:0616F0000895F894FFCFFD
:0A16F600FFFFFFFFFFFFFFFFFFFFF4
:00000001FF
