:100000000FC01EC01DC01CC01BC01AC019C018C024
:1000100017C016C015C014C013C012C011C010C044
:1000200011241FBECFE5D1E0DEBFCDBF20E0A0E6AA
:10003000B0E001C01D92A238B207E1F7C1D350C7AA
:10004000DFCF8FB980E190E02DB123602DB901970A
:10005000D9F78FB10895CF93DF931F92CDB7DEB755
:10006000C3986983EEDF6981862FEBDFC39A0F9017
:10007000DF91CF910895CF93C398E3DF80E0E1DF74
:1000800080E0DFDFC82F80E0DCDF282F880F330B14
:10009000C39A322F22278C2FCC0F990B822B932BB4
:1000A000CF91089588E8E7DF909363008093620022
:1000B0008AE8E1DF90936900809368008CE8DBDFD9
:1000C00090937B0080937A008EE8D5DF9093710047
:1000D0008093700080E9CFDF90936B0080936A007B
:1000E00082E9C9DF909373008093720084E9C3DFD3
:1000F00090936D0080936C0086E9BDDF90936F0054
:1001000080936E0088E9B7DF90937D0080937C0038
:100110008AE9B1DF90936100809360008CE9ABDFE6
:1001200090937500809374008EE9A5DF9093790019
:1001300080937800089567E584E78DDF60E185E7C7
:100140008ACF7FCFCF92DF92EF92FF92C3988068E1
:1001500078DF80E076DFC82E880FDD08EE08FF0824
:10016000FE2CED2CDC2CCC2480E06BDF482F880F9C
:10017000550B660B770BD701C601842B952BA62B4D
:10018000B72BCC24D82EE92EFA2E80E05ADF482F48
:10019000880F550B660B770BD701C601842B952B67
:1001A000A62BB72BC39ABC01CD0134E0959587955A
:1001B000779567953A95D1F7FF90EF90DF90CF90C4
:1001C00008954F925F926F927F928F929F92AF921B
:1001D000BF92CF92DF92EF92FF928AEFB3DF8090CF
:1001E000620090906300A12CB12C6B017C0124E093
:1001F000F594E794D794C7942A95D1F7C818D908ED
:10020000EA08FB08DC01CB0133E0B595A79597958B
:1002100087953A95D1F7880C991CAA1CBB1CBC0188
:10022000CD01681979098A099B09209168003091EC
:100230006900032E000C440B550BA3D329013A018E
:100240005BE075946794579447945A95D1F7C7012A
:10025000B601A701960195D349015A01C501B40120
:10026000ECE09595879577956795EA95D1F720917C
:100270007A0030917B00032E000C440B550B81D388
:1002800049015A01D501C401FEE0B595A79597959E
:100290008795FA95D1F7BC01CD01640D751D861DBA
:1002A000971D60937E0070937F00809380009093F1
:1002B000810025E030E040E050E063D349015A017D
:1002C000D501C40180589F4FAF4FBF4F692F7A2F80
:1002D0008B2F992787FD9A95FF90EF90DF90CF9015
:1002E000BF90AF909F908F907F906F905F904F9056
:1002F00008952F923F924F925F926F927F928F92CA
:100300009F92AF92BF92CF92DF92EF92FF920F93A4
:100310001F93CF93DF93CDB7DEB762970FB6F894F4
:10032000DEBF0FBECDBF4DDF87EF0CDF2B013C01E1
:1003300080907E0090907F00A0908000B09081001F
:10034000B594A794979487940AEF901AA108B108DE
:10035000A501940162E055954795379527956A95D3
:10036000D1F7CA01B9010DD369017A0100917C006E
:1003700010917D001A8B098B00916E0010916F0017
:1003800020906C0030906D0060917200709173004D
:10039000072E000C880B990BA7019601EDE05595EF
:1003A000479537952795EA95D1F7EBD229833A837C
:1003B0004B835C8329813A814B815C81F3E05595C5
:1003C000479537952795FA95D1F729833A834B833B
:1003D0005C8360916A0070916B00072E000C880BA3
:1003E000990BA5019401CDD229873A874B875C8769
:1003F00089859A85AB85BC85B595A7959795879591
:1004000029813A814B815C81820F931FA41FB51F04
:1004100032E1B595A795979587953A95D1F7BC01A7
:10042000CD0170588F4F9F4F209170003091710017
:1004300040E050E0A6D2C901DA019C01AD016FE0B5
:1004400055954795379527956A95D1F729873A8726
:100450004B875C87232B242B252B09F4E9C0C7018C
:10046000B601ABE09595879577956795AA95D1F7F5
:10047000E988FA889701FF0C440B550B82D2298337
:100480003A834B835C839801110F440B550BC501D4
:10049000B40177D249015A01D501C401880F991FCF
:1004A000AA1FBB1FC980DA80EB80FC80C80ED91E52
:1004B000EA1EFB1E02E0F594E794D794C7940A95D0
:1004C000D1F788279927DC0184199509A609B7096E
:1004D000A101330C660B770BBA0155274427C40ED4
:1004E000D51EE61EF71E3CE0F594E794D794C7941A
:1004F0003A95D1F7BC01CD016C197D098E099F0990
:1005000025E33CE040E050E03ED249015A01C501FC
:10051000B401805B9C4397FD0CC0660F771F881F5A
:10052000991F29853A854B855C8509D229013A01B5
:100530000BC029853A854B855C8501D229013A019A
:10054000440C551C661C771CA301920183E0569550
:100550004795379527958A95D1F7809178009091A6
:1005600079007C01990F000B110BE982FA820B8351
:100570001C83CA01B90107D249015A01A50194019E
:100580009DE056954795379527959A95D1F76981BE
:100590007A818B819C81F5D149015A0195018401B1
:1005A0004CE035952795179507954A95D1F709831E
:1005B0001A832B833C83C301B20152E09695879541
:1005C000779567955A95D1F7209174003091750011
:1005D000032E000C440B550BD4D149015A016DE098
:1005E000B594A794979487946A95D1F7E980FA8097
:1005F0000B811C818E0C9F1CA01EB11E609160009F
:1006000070916100CB01770FAA0BBB0B880D991D70
:10061000AA1DBB1D74E0B595A795979587957A950A
:10062000D1F7BC01CD01640D751D861D971D03C05A
:1006300060E070E0CB0162960FB6F894DEBF0FBEAB
:10064000CDBFDF91CF911F910F91FF90EF90DF9081
:10065000CF90BF90AF909F908F907F906F905F9062
:100660004F903F902F9008958F929F92AF92BF929C
:10067000CF92DF92EF92FF92A4DD4B015C0139DE55
:1006800014D36B017C01C501B40111D320E030E02B
:1006900048EC52E471D223E333E948E853E408D24A
:1006A00026E636E84FE853E48ED39B01AC01C70140
:1006B000B60162D220E030E048EC52E484D3C4D2E8
:1006C000FF90EF90DF90CF90BF90AF909F908F9072
:1006D00008950F931F93CF93DF938C01EB01209725
:1006E00079F076956795C801F4DF9C01C0FD02C0E2
:1006F000C90103C0C801B901FED0B901FCD002C0D4
:1007000081E090E0DF91CF911F910F910895F1DD8D
:1007100068EE73E080E090E008950F931F93CF930D
:10072000DF9300E010E0C0E0D0E0C801B7D3C81705
:10073000D90708F4EC010E5F1F4F0E331105A9F71E
:100740002097C9F1E5E0F0E00AE010E0CE01B80141
:10075000E3D0009711F0282F01C02AE0CE01B801A4
:10076000DBD0EB0180E090E0022E000C330B82170F
:100770009307B4F4C29A4FEF51EE64E041505040F9
:100780006040E1F700C00000C2984FEF51EE64E016
:10079000415050406040E1F700C000000196E7CFB3
:1007A0008FEF9EE924E2815090402040E1F700C0A5
:1007B0000000319759F6DF91CF911F910F91089565
:1007C00087B38C6687BB8DB18D618DB9C29AC39A90
:1007D0002FEF84E39CE0215080409040E1F700C07F
:1007E000000060E080ED37DC883511F0C29AFCCF64
:1007F000C2982FEF80E792E0215080409040E1F7CF
:1008000000C0000098DC2FEF80E792E0215080408C
:100810009040E1F700C0000045DC2FEF81E19AE74E
:10082000215080409040E1F700C0000062DD7093ED
:100830007700609376006BDF6B017C0100E010E0D5
:10084000D0E0C0E064DF33D220E030E040E05FE39E
:10085000BAD22B013C01C701B60127D220E030E01B
:1008600040E05FE3B0D29B01AC01C301B20120D1F3
:10087000F0D12B013C01D11121C0D701C601029654
:10088000A11DB11D84159505A605B70590F4A12CF1
:10089000B12C68EE73E0C50105D322E0A20EB11CB5
:1008A0008EE3A816B104A9F7B60180E090E0FAD271
:1008B00005C0C1110EC0C29AC1E011C00E331105AE
:1008C0002CF4B201C801EED20E5F1F4FCC2321F0F1
:1008D000D1E0C298DD2311F0C298D1E0C0E09FEFD3
:1008E00020E782E0915020408040E1F700C0000006
:1008F00073016201A7CF0024552704C0080E591FB9
:10090000880F991F009729F076956795B8F37105C0
:10091000B9F7802D952F089597FB072E16F40094B4
:1009200006D077FD08D081D007FC05D03EF4909525
:1009300081959F4F0895709561957F4F0895A1E22D
:100940001A2EAA1BBB1BFD010DC0AA1FBB1FEE1F49
:10095000FF1FA217B307E407F50720F0A21BB30B94
:10096000E40BF50B661F771F881F991F1A9469F710
:1009700060957095809590959B01AC01BD01CF016C
:10098000089568940013E894A0E0B0E0E9ECF4E086
:100990001DC0EFEFE7F959016A015E23550FEE081C
:1009A000FE2C87019B01AC019E23990F660B762FCD
:1009B000CB014FD0CDB7DEB7EAE024C02F923F92F3
:1009C0004F925F926F927F928F929F92AF92BF925F
:1009D000CF92DF92EF92FF920F931F93CF93DF930B
:1009E000CDB7DEB7CA1BDB0B0FB6F894DEBF0FBE68
:1009F000CDBF09942A88398848885F846E847D84B5
:100A00008C849B84AA84B984C884DF80EE80FD80B6
:100A10000C811B81AA81B981CE0FD11D0FB6F8942C
:100A2000DEBF0FBECDBFED010895AA1BBB1B51E178
:100A300007C0AA1FBB1FA617B70710F0A61BB70B4E
:100A4000881F991F5A95A9F780959095BC01CD01F3
:100A50000895DF93CF939F92A0E49A2E0024D001B3
:100A6000E001F00116950795F794E794D794C794A1
:100A7000B794A79448F41068A20FB31FC41FD51FE2
:100A8000E61FF71F081E191E220F331F441F551F94
:100A9000661F771F881F991F9A9421F79D01AE0149
:100AA000BF01C00111249F90CF91DF91089550584C
:100AB000BB27AA270ED04DC13ED130F043D120F044
:100AC00031F49F3F11F41EF433C10EF4E095E7FBBF
:100AD00029C1E92F4FD180F3BA1762077307840742
:100AE000950718F071F49EF567C10EF4E0950B2E92
:100AF000BA2FA02D0B01B90190010C01CA01A00170
:100B00001124FF27591B99F0593F50F4503E68F1CA
:100B10001A16F040A22F232F342F4427585FF3CF0B
:100B2000469537952795A795F0405395C9F77EF4DC
:100B30001F16BA0B620B730B840BBAF09150A1F025
:100B4000FF0FBB1F661F771F881FC2F70EC0BA0FAB
:100B5000621F731F841F48F4879577956795B79533
:100B6000F7959E3F08F0B3CF9395880F08F099272B
:100B7000EE0F9795879508950CD0EBC0E3D040F029
:100B8000DAD030F021F45F3F19F0CCC0511115C11B
:100B9000CFC0F0D098F39923C9F35523B1F3951B37
:100BA000550BBB27AA2762177307840738F09F5F8E
:100BB0005F4F220F331F441FAA1FA9F333D00E2EFD
:100BC0003AF0E0E830D091505040E695001CCAF76A
:100BD00029D0FE2F27D0660F771F881FBB1F26172F
:100BE00037074807AB07B0E809F0BB0B802DBF0102
:100BF000FF2793585F4F2AF09E3F510568F092C03F
:100C0000DCC05F3FECF3983EDCF386957795679503
:100C1000B795F7959F5FC9F7880F911D96958795B2
:100C200097F90895E1E0660F771F881FBB1F6217D1
:100C300073078407BA0720F0621B730B840BBA0B8F
:100C4000EE1F88F7E095089504D06894B111B5C0FF
:100C5000089598D088F09F5790F0B92F9927B751F1
:100C6000A0F0D1F0660F771F881F991F1AF0BA9570
:100C7000C9F712C0B13081F09FD0B1E008959CC097
:100C8000672F782F8827B85F39F0B93FCCF3869566
:100C900077956795B395D9F73EF4909580957095C3
:100CA00061957F4F8F4F9F4F0895E89409C097FB40
:100CB0003EF490958095709561957F4F8F4F9F4F33
:100CC0009923A9F0F92F96E9BB279395F695879577
:100CD00077956795B795F111F8CFFAF4BB0F11F43A
:100CE00060FF1BC06F5F7F4F8F4F9F4F16C08823E1
:100CF00011F096E911C0772321F09EE8872F762F17
:100D000005C0662371F096E8862F70E060E02AF057
:100D10009A95660F771F881FDAF7880F9695879543
:100D200097F9089597F99F6780E870E060E008956B
:100D30009FEF80EC089500240A94161617061806F3
:100D40000906089500240A941216130614060506CF
:100D50000895092E0394000C11F4882352F0BB0F60
:100D600040F4BF2B11F460FF04C06F5F7F4F8F4FC3
:100D70009F4F089557FD9058440F551F59F05F3FFE
:100D800071F04795880F97FB991F61F09F3F79F0AD
:100D900087950895121613061406551FF2CF46952F
:100DA000F1DF08C0161617061806991FF1CF8695B1
:100DB0007105610508940895E894BB276627772795
:100DC000CB0197F908950AD0C4CFB5DF28F0BADF78
:100DD00018F0952309F0A6CFABCFEFCFCBDFA8F368
:100DE0009923D9F35523C9F3950F50E0551FAA272E
:100DF000EE27FF27BB2700240894679520F4E20F15
:100E0000F31FB41F0A1E220F331F441FAA1F66952B
:100E1000A9F7779530F4F30FB41F0A1E121E08F4D9
:100E20006395330F441FAA1F221F769599F7879564
:100E300020F4B40F0A1E121E631F440FAA1F221FA4
:100E4000331F8695A9F7862F712D602D11249F578A
:100E500050408AF0E1F088234AF0EE0FFF1FBB1FDD
:100E6000661F771F881F91505040A9F79E3F51057C
:100E700070F058CFA2CF5F3FECF3983EDCF386953D
:100E800077956795B795F795E7959F5FC1F7FE2B27
:100E9000880F911D9695879597F90895A8E1B0E080
:100EA00042E005C010D0272F0FC0DC01862FE82FAD
:100EB000E199FECF05C0EEBBE09AE3950DB20D922D
:100EC0004150C8F70895262FE199FECF1CBA8EBB7A
:100ED0002DBB0FB6F894E29AE19A0FBE01960895E1
:040EE000F894FFCFB4
:00000001FF
